:100800004545333337002A2A2A2A2A2A2A2A2A2A1D
:100810002A2A2A2A2A2A2A2A2A2A2A2A2A2A0D0A75
:10082000002A2A2A2A2A2A3830353120546573743E
:10083000732A2A2A2A2A2A2A2A0D0A005072657344
:1008400073203120666F72204C43442074657374AA
:100850000D0A005072657373203220666F72204C4F
:10086000454420746573740D0A004C43442074653C
:10087000737465640D0A004C454420746573746597
:10088000640D0A00496E636F72726563742074654B
:1008900073742E205061737320636F72726563747A
:0A08A000206E756D6265720D0A008E
:040C1C00C101C10051
:100AE100E4F5A0C282C280C2817F38FE120BC61219
:100AF1000B687F067E00120BC6120B687F0C7E000E
:100B0100120BC6120B687F017E00120BC6120B6816
:070B11007F807E00020BC68D
:040B68007F047E0088
:100B6C00E4FDFCC3ED9FEC9E5015E4FBFA0BBB00BF
:0F0B7C00010ABA01F8BB7EF50DBD00010C80E443
:010B8B002247
:1008AA008E088F098B0A8A0B890C7C277D10120906
:1008BA009DEF2430120969AE08AF097C277D10121A
:1008CA00099D7E037FE8CFCDCFCECCCE12099DEF16
:1008DA002430AB0AAA0BA90C90000112097BAE08BE
:1008EA00AF097C037DE812099D7E007F64CFCDCFDE
:1008FA00CECCCE12099DEF2430AB0AAA0BA90C90DC
:10090A00000212097BAE08AF097C007D6412099DC2
:10091A007E007F0ACFCDCFCECCCE12099DEF2430F8
:10092A00AB0AAA0BA90C90000312097BAE08AF0907
:10093A007C007D0A12099DED2430AB0AAA0BA90C92
:06094A0090000402097B8D
:100BC600C280C281D2828FA07F0A7E00120B6CC2C5
:020BD600822279
:100BD800D280C281D2828FA07F0A7E00120B6CC2A3
:020BE800822267
:100B43008B0E8A0F8910AB0EAA0FA91012095060E1
:100B5300130510E5107002050F14F9120950FF1266
:050B63000BD880E22226
:100BEA00758920758DF3759850D28ED2ACD2AF220A
:080C14008F993001FDC201229D
:060B18007BFF7A0879065C
:100B1E008B0E8A0F8910AB0EAA0FA9101209506006
:100B2E00130510E5107002050F14F9120950FF128B
:050B3E000C1480E2220E
:090C0A00E4FF3000FDC200AF99C7
:010C130022BE
:03002300020BFAD3
:100BFA00309905C299D20132309804C298D2003293
:100B8C007F807E00120BC67BFF7A087900120B4324
:0E0B9C007FD07E07120B6C7F017E00020BC61D
:100BAA007590107FF47E01120B6C759020120B6CFD
:0C0BBA00759040120B6C759080020B6C63
:100A7E00E4F50D75900F120AE1120BEA120B187BBA
:100A8E00FF7A087921120B1E120B187BFF7A087958
:100A9E003C120B1E7BFF7A087953120B1E120C0AA6
:100AAE008F0DE50D24CE600E047016120B8C7BFF9D
:100ABE007A08796A8011120BAA7BFF7A08797780FF
:100ACE00067BFF7A087984120B1E7F647E00120B60
:030ADE006C80CA5F
:030000000209F200
:0C09F200787FE4F6D8FD758120020A39F8
:10095000BB010689828A83E0225002E722BBFE02A5
:09096000E32289828A83E49322D8
:10096900BB010689828A83F0225002F722BBFE016D
:02097900F32267
:10097B00F8BB010DE58229F582E5833AF583E8F0B2
:10098B00225006E92582C8F622BBFE05E92582C85E
:02099B00F22246
:10099D00BC000BBE0029EF8DF084FFADF022E4CC3E
:1009AD00F875F008EF2FFFEE33FEEC33FCEE9DEC07
:1009BD00984005FCEE9DFE0FD5F0E9E4CEFD22ED4D
:1009CD00F8F5F0EE8420D21CFEADF075F008EF2F97
:1009DD00FFED33FD4007985006D5F0F222C398FD88
:0509ED000FD5F0EA2225
:1009FE00020A7EE493A3F8E493A34003F68001F287
:100A0E0008DFF48029E493A3F85407240CC8C333F9
:100A1E00C4540F4420C8834004F456800146F6DFC8
:100A2E00E4800B0102040810204080900C1CE47E30
:100A3E00019360BCA3FF543F30E509541FFEE493BD
:100A4E00A360010ECF54C025E060A840B8E493A384
:100A5E00FAE493A3F8E493A3C8C582C8CAC583CAAF
:100A6E00F0A3C8C582C8CAC583CADFE9DEE780BE67
:010C200000D3
:00000001FF
