:060000007589110202D413
:04000B000202373284
:10020000758D3C758BAFC28FD28E308FFD227814E6
:100210005100D8FC22781E5100D8FC2278285100C9
:10022000D8FC22C0007804512ED8FCD00022C00097
:1002300078F4D8FED00022B2878E8C8F8AC28D329D
:10024000758CEE758A3FAE8CAF8A75A882D28C51C0
:1002500015C28CC28D22758CF0758A2FAE8CAF8A38
:1002600075A882D28C5115C28C22758CF2758AB712
:10027000AE8CAF8A75A882D28C5115C28C22758C37
:10028000F0758A2FAE8CAF8A75A882D28C5115C2B8
:100290008C22758CF5758A71AE8CAF8A75A882D266
:1002A0008C511CC28C2222C287510E22758CF5758E
:1002B0008A71AE8CAF8A75A882D28C511CC28C22F6
:1002C000758CF4758A2AAE8CAF8A75A882D28C514F
:1002D0001CC28C2275A0007590005123512351FC43
:1002E00074807139900450715951405156516A517E
:1002F0007E519251A751AC51C00202D475A038C2B0
:1003000080C281D2827167C282716775A00CC2807F
:10031000C281D2827167C282512375A001C280C29C
:1003200081D2827167C282716775A006C280C28164
:09033000D2827167C2827167225A
:10033900F5A0C280C281D2827167C282716722F53B
:10034900A0D280C281D2827167C28271677167222D
:10035900C0E0E49360057148A380F7D0E022C000B3
:0F036900C001780179FFD9FED8FAD001D0002267
:100450002020524F4C4C494E472054494D452020B6
:10046000004966204C454420676C6F77732000522A
:1004700065616374696F6E2054696D65202020008A
:1004800020436F756E742069732020200020202087
:1004900020204C6576656C20342020202000202010
:0104A000005B
:00000001FF
