:0A09B30041004200430044004500EB
:10085600E4F5A0C282C280C2817F38FE12094F7FB2
:10086600047E001208AE7F067E0012094F7F047ECA
:10087600001208AE7F0C7E0012094F7F047E001224
:1008860008AE7F017E0012094F7F047E001208AE7B
:070896007F807E0002094F84
:10089D0012090C7FE87E031208AE1209247FE87E50
:0108AD000347
:1008AE00E4FDFCC3ED9FEC9E5015E4FBFA0BBB0080
:0F08BE00010ABA01F8BB7EF50DBD00010C80E404
:0108CD002208
:10094F00C280C281D2828FA07F0A7E001208AEC2FF
:02095F008222F2
:10096100D280C281D2828FA07F0A7E001208AEC2DD
:020971008222E0
:1008CE008B088A09890AAB08AA09A90A1208F360DB
:1008DE0013050AE50A7002050914F91208F3FF124E
:0508EE00096180E22217
:10090C00900000B2877F017E001208AEA3E582B48E
:07091C00DCF1E583B405ECFA
:0109230022B1
:10092400900000B2877F017E001208AEA3E582B476
:07093400EEF1E583B402ECD3
:01093B002299
:0D0983001208A712090C7FE87E030208AEDF
:1009730012089D1208A71209247FE87E030208AE1D
:10093C0012089D12090C1208AA1209247FE87E03E2
:03094C000208AEF0
:0D09900012089D1209247FE87E030208AEC4
:0A09A9001209247FE87E030208AE65
:1008000012085675900F30900E7BFF7A0979B3125B
:1008100008CE120983803D30910E7BFF7A0979B5AD
:100820001208CE120973802C30920E7BFF7A097960
:10083000B71208CE12093C801B7BFF30930C7A095B
:1008400079B91208CE120990800A7A0979BB120888
:06085000CE1209A980FE92
:0300000002099D55
:0C099D00787FE4F6D8FD75810A0208009E
:1008F300BB010689828A83E0225002E722BBFE0203
:09090300E32289828A83E4932235
:00000001FF
