:0300000002026E8B
:03000B0002024DA1
:100200007A055107DAFC2279C8510ED9FC22C000C8
:1002100078045119D8FCD00022C00078F4D8FED060
:100220000022E530540F5134F561E530C4540F51CC
:1002300034F56022B40A005003243022243722759A
:10024000F00A84AFF075F00A84AEF0FD22758CF8E8
:10025000758A2FC28D0FBF3A147F300EBE3A0E7EC4
:10026000300DBD3A087D300CBC3A027C303275A0AE
:1002700000759000510E510E51E17480711E900472
:1002800050713E74C0711E900461713E7589017594
:100290008CF8758A2F75A8827C307D307E307F3057
:1002A00051005100759011D28C3090FDC28C759028
:1002B000017480711E900472713E74C0711E9004AE
:1002C00083713EEC712DED712DEE712DEF712D903E
:1002D000048E713E51005100510051005100020244
:1002E0006E75A038C280C281D282714CC282714CBC
:1002F00075A00CC280C281D282714CC282510E752F
:10030000A001C280C281D282714CC282714C75A0A0
:1003100006C280C281D282714CC282714C22F5A089
:0F032000C280C281D282714CC282714C22F5A080
:10032F00D280C281D282714CC282714C714C22C078
:10033F00E0E4936005712DA380F7D0E022C000C0E8
:0E034F0001780179FFD9FED8FAD001D0002242
:10045000202020546F67676C65205357312020207F
:100460000020204966204C454420676C6F7773203C
:10047000200020205265616374696F6E2054696D9D
:1004800065200020436F756E7420697320006D73C2
:01049000006B
:00000001FF
