:100000007570F37571B1020200758901758C3C75CC
:100010008AAFC28DD28C308DFD2278281109D8FC90
:1000200022C0007804112CD8FCD00022C00078F443
:10003000D8FED00022E576540F7572307573307596
:10004000743075753013400A13400C13400E134082
:10005000102275753180F175743180EF75733180C0
:05006000ED7572312274
:1002000075702375714575A000759000112111213D
:1002100051CFE570C4F5907480710C900450712C2E
:1002200074C0710C900461712C8570761135E57283
:10023000711BE573711BE574711BE575711B111A58
:10024000E570F5907480710C900469712C74C07124
:100250000C900461712CE570C4F5761135E572716E
:100260001BE573711BE574711BE575711B111AE5B4
:1002700071C4F5907480710C90047A712C74C07103
:100280000C900461712C8571761135E572711BE556
:1002900073711BE574711BE575711B111AE571F51E
:1002A000907480710C90048B712C74C0710C90044C
:1002B00061712CE571C4F5761135E572711BE5733A
:1002C000711BE574711BE575711B111A0202007533
:1002D000A038C280C281D282713AC282713A75A0BE
:1002E0000CC280C281D282713AC282112175A001F2
:1002F000C280C281D282713AC282713A75A006C2AE
:1003000080C281D282713AC282713A22F5A0C28043
:10031000C281D282713AC282713A22F5A0D280C2E1
:1003200081D282713AC282713A713A22C0E0E4937A
:040330006005711BD8
:10033400A380F7D0E022C000C001780179FFD9FE84
:07034400D8FAD001D000221D
:1004500020202020204C6576656C20312020202033
:100460000056616C75653A200020202020204C65E4
:1004700076656C2032202020200020202020204C77
:100480006576656C2033202020200020202020204D
:0F0490004C6576656C2034202020200020200051
:00000001FF
