:100000000202007A05110ADAFC2279C81111D9FC22
:1000100022C0007804111CD8FCD00022C00078F463
:10002000D8FED00022E530540F1137F561E530C419
:10003000540F1137F56022B40A00500324302224F3
:02004000372265
:1002000075A0007590001111111171167590FF7491
:10021000807153900450717374C071537181900454
:10022000617173110374807153900491717374C080
:1002300071537181900461717375908F1103110373
:10024000E590C454F0F53375904F11031103E59018
:10025000540FF5342533F53075902F11031103E554
:1002600090C454F0F53575901F11031103E59054B7
:100270000FF5362535F53175900074807153900473
:100280007271731125856062856163856066856121
:1002900067853130112585606885616974C0715347
:1002A0009004837173E5627162E563716290048901
:1002B0007173E5607162E561716211031103E530EC
:1002C0008531F0A4F55085F05185503011258560B9
:1002D000628561638551301125748071539004A249
:1002E0007173748B7153E5607162E5617162E562EF
:1002F0007162E563716274C071539004837173E538
:10030000667162E56771629004897173E568716274
:10031000E569716280FE75A038C280C281D28271A7
:1003200081C282718175A00CC280C281D28271812A
:10033000C282111175A001C280C281D2827181C2B4
:0A03400082718175A006C280C2819F
:10034A00D2827181C282718122F5A0C280C281D219
:10035A00827181C282718122F5A0D280C281D28249
:10036A007181C2827181718122C0E0E4936005715A
:10037A0062A380F7D0E022C000C001780179FFD9DA
:08038A00FED8FAD001D00022D8
:100450002020454E54455220494E5055545320209B
:100460000020202045453333372D323032322020D2
:100470002000434F4D505554494E47205245535547
:100480004C54004E554D313A002C204E554D323AC9
:10049000002052454144494E4720494E505554533F
:1004A00020002020524553554C54203D2020202030
:0604B000202000202000C6
:00000001FF
