:0300000002023FBA
:02000B000C32B5
:100200007A055107DAFC2279C8510ED9FC22C000C8
:1002100078045119D8FCD00022C00078F4D8FED060
:100220000022E530540F5134F561E530C4540F51CC
:1002300034F56022B40A005003243022243722759A
:10024000A000759000510E510E51D8748071159018
:100250000450713574C07115900461713575890150
:10026000758C00758A0075A8827C0051005100755C
:100270009011D28C3090FDC28C75900174807115F4
:10028000900472713574C0711590048371358C308F
:100290005122856040856141858C305122856042C4
:1002A000856143858A305122856044856145E540FA
:1002B0007124E541712490048E7135E5427124E585
:1002C000437124E5447124E54571245100510051E6
:1002D000005100510002023F75A038C280C281D295
:1002E000827143C282714375A00CC280C281D282E6
:1002F0007143C282510E75A001C280C281D2827147
:1003000043C282714375A006C280C281D28271430A
:10031000C282714322F5A0C280C281D2827143C2DF
:1003200082714322F5A0D280C281D2827143C282FF
:090330007143714322C0E0E49323
:1003390060057124A380F7D0E022C000C0017801D4
:0B03490079FFD9FED8FAD001D00022C5
:10045000202020546F67676C65205357312020207F
:100460000020204966204C454420676C6F7773203C
:10047000200020205265616374696F6E2054696D9D
:1004800065200020436F756E742069732000200082
:00000001FF
